:020000020000FC
:020000001CC022
:080012001CC06D6167696331D8
:100022001A010703E50650964AE59D9855B455BC5A
:1000320001F000C05090AA556FE56DBF62E06EBF3F
:1000420068E16AB96CE069B925C0A0938600B093F3
:100052008700C0938800D0938900E0938A00F093D0
:100062008B00AFB7A0939000BEB7ADB7CD91CD9145
:10007200DC91C0938C00D0938D00A0938E00B0933E
:100082008F00BAE1CC27DD27ECE6F0E0A991A1933D
:10009200BA95E1F7A9D060916000613009F42BC0F4
:1000A200623009F450C0633009F470C0643009F45E
:1000B2007AC0653009F47FC0663009F48EC06730BB
:1000C20009F491C0E7CFA0918E00ADBFA0918F003F
:1000D200AEBFA0919000AFBFA0918600B091870003
:1000E200C0918800D0918900E0918A00F0918B0044
:1000F20061E068BF1895B0916A00A0916B00F09121
:100102006600E0916700B0936200A09363007BD029
:1001120040916100413011F400810BC0433019F469
:10012200C895002D06C0E199FECFEEBBFFBBE09A59
:100132000DB37BD0002411241394E10DF01DA119FD
:10014200B00941F7A7CFB0916200A0916300F0918E
:100152006600E09167004091610063D0413011F484
:1001620020830AC0423041F4E199FECFEEBBFFBBCF
:100172002DBB24E02CBBE19A58D000241124139407
:10018200E10DF01DA119B00941F784CFA5E2B0E05D
:10019200ECE6F0E0B0936200A093630034D041E05B
:1001A20040936100B5CFA5E2B0E0ECE6F0E041E0BB
:1001B20040936100D0CFF0916A00E0916B00889487
:1001C200EE1FFF1FA1E9B0E0EA0FFB1FB09166002E
:1001D200A0916700A193B0835DCFAA27A093660088
:1001E200A0936700E8CF56CF4F93AF93BF93A0E69B
:1001F200B0E04CE016D02D9318D04A95D9F7BF91B4
:10020200AF914F9108954F93AF93BF93A0E6B0E0A3
:100212004CE00D910AD04A95E1F7BF91AF914F9111
:1002220008955F9BFECF2CB108955D9BFECF0CB964
:0C02320008956D616769635F656E64008C
:00000001FF
